{
  "_format": "hh-sol-artifact-1",
  "contractName": "ethGasOptimizer",
  "sourceName": "contracts/executeTransfer.sol",
  "abi": [
    {
      "inputs": [],
      "stateMutability": "nonpayable",
      "type": "constructor"
    },
    {
      "anonymous": false,
      "inputs": [
        {
          "indexed": false,
          "internalType": "address",
          "name": "_from",
          "type": "address"
        },
        {
          "indexed": false,
          "internalType": "address",
          "name": "_destAddr",
          "type": "address"
        },
        {
          "indexed": false,
          "internalType": "uint256",
          "name": "_amount",
          "type": "uint256"
        }
      ],
      "name": "TransferSent",
      "type": "event"
    },
    {
      "inputs": [
        {
          "internalType": "address",
          "name": "tokenContract",
          "type": "address"
        },
        {
          "internalType": "address",
          "name": "from",
          "type": "address"
        },
        {
          "internalType": "address",
          "name": "to",
          "type": "address"
        },
        {
          "internalType": "uint256",
          "name": "amount",
          "type": "uint256"
        }
      ],
      "name": "transferERC20",
      "outputs": [],
      "stateMutability": "nonpayable",
      "type": "function"
    }
  ],
  "bytecode": "0x608060405234801561001057600080fd5b506100596040518060400160405280601a81526020017f6574684761734f7074696d697a657220496e7469616c697a656400000000000081525061005e60201b6102c61760201c565b6101e1565b6100fa81604051602401610072919061015f565b6040516020818303038152906040527f41304fac000000000000000000000000000000000000000000000000000000007bffffffffffffffffffffffffffffffffffffffffffffffffffffffff19166020820180517bffffffffffffffffffffffffffffffffffffffffffffffffffffffff83818316178352505050506100fd60201b60201c565b50565b60008151905060006a636f6e736f6c652e6c6f679050602083016000808483855afa5050505050565b600061013182610181565b61013b818561018c565b935061014b81856020860161019d565b610154816101d0565b840191505092915050565b600060208201905081810360008301526101798184610126565b905092915050565b600081519050919050565b600082825260208201905092915050565b60005b838110156101bb5780820151818401526020810190506101a0565b838111156101ca576000848401525b50505050565b6000601f19601f8301169050919050565b610780806101f06000396000f3fe608060405234801561001057600080fd5b506004361061002b5760003560e01c8063da3e8ce414610030575b600080fd5b61004a600480360381019061004591906103dc565b61004c565b005b600084905060008173ffffffffffffffffffffffffffffffffffffffff166370a08231866040518263ffffffff1660e01b815260040161008c919061052e565b60206040518083038186803b1580156100a457600080fd5b505afa1580156100b8573d6000803e3d6000fd5b505050506040513d601f19601f820116820180604052508101906100dc9190610468565b905080831115610121576040517f08c379a0000000000000000000000000000000000000000000000000000000008152600401610118906105eb565b60405180910390fd5b60008273ffffffffffffffffffffffffffffffffffffffff1663dd62ed3e87306040518363ffffffff1660e01b815260040161015e929190610549565b60206040518083038186803b15801561017657600080fd5b505afa15801561018a573d6000803e3d6000fd5b505050506040513d601f19601f820116820180604052508101906101ae9190610468565b90508381116101f2576040517f08c379a00000000000000000000000000000000000000000000000000000000081526004016101e9906105cb565b60405180910390fd5b8273ffffffffffffffffffffffffffffffffffffffff166323b872dd8787876040518463ffffffff1660e01b815260040161022f93929190610572565b602060405180830381600087803b15801561024957600080fd5b505af115801561025d573d6000803e3d6000fd5b505050506040513d601f19601f82011682018060405250810190610281919061043f565b507ffda3a3e0e1479b43cb1c701f7576187f4c4ad80768d627387e00184302f7d88e8686866040516102b593929190610572565b60405180910390a150505050505050565b61035c816040516024016102da91906105a9565b6040516020818303038152906040527f41304fac000000000000000000000000000000000000000000000000000000007bffffffffffffffffffffffffffffffffffffffffffffffffffffffff19166020820180517bffffffffffffffffffffffffffffffffffffffffffffffffffffffff838183161783525050505061035f565b50565b60008151905060006a636f6e736f6c652e6c6f679050602083016000808483855afa5050505050565b60008135905061039781610705565b92915050565b6000815190506103ac8161071c565b92915050565b6000813590506103c181610733565b92915050565b6000815190506103d681610733565b92915050565b600080600080608085870312156103f257600080fd5b600061040087828801610388565b945050602061041187828801610388565b935050604061042287828801610388565b9250506060610433878288016103b2565b91505092959194509250565b60006020828403121561045157600080fd5b600061045f8482850161039d565b91505092915050565b60006020828403121561047a57600080fd5b6000610488848285016103c7565b91505092915050565b61049a81610627565b82525050565b60006104ab8261060b565b6104b58185610616565b93506104c581856020860161066f565b6104ce816106a2565b840191505092915050565b60006104e6601583610616565b91506104f1826106b3565b602082019050919050565b6000610509601283610616565b9150610514826106dc565b602082019050919050565b61052881610665565b82525050565b60006020820190506105436000830184610491565b92915050565b600060408201905061055e6000830185610491565b61056b6020830184610491565b9392505050565b60006060820190506105876000830186610491565b6105946020830185610491565b6105a1604083018461051f565b949350505050565b600060208201905081810360008301526105c381846104a0565b905092915050565b600060208201905081810360008301526105e4816104d9565b9050919050565b60006020820190508181036000830152610604816104fc565b9050919050565b600081519050919050565b600082825260208201905092915050565b600061063282610645565b9050919050565b60008115159050919050565b600073ffffffffffffffffffffffffffffffffffffffff82169050919050565b6000819050919050565b60005b8381101561068d578082015181840152602081019050610672565b8381111561069c576000848401525b50505050565b6000601f19601f8301169050919050565b7f7573657220686173206e6f7420617070726f7665640000000000000000000000600082015250565b7f62616c616e636520697320746f6f206c6f770000000000000000000000000000600082015250565b61070e81610627565b811461071957600080fd5b50565b61072581610639565b811461073057600080fd5b50565b61073c81610665565b811461074757600080fd5b5056fea264697066735822122016bcf4196e36d27c29140938357f433233448f94bcab7bf7a4173c00545e0df764736f6c63430008040033",
  "linkReferences": {},
  "deployedLinkReferences": {}
}